:020000040000FA
:0400000009EF00F014
:0E0008005F8245EC0EF05F92110027EF11F0C1
:1003000000B6037E034C0309030902430002010007
:10031000C03209040000010202010005240010019E
:10032000042402020524060001052401000107053A
:1003300081030A000209040100020A000000070507
:10034000020240000007058202400000320355000F
:100350005300420020004900520020005200450096
:100360004D004F0043004F004E0020004900520056
:1003700054006F0079002D0045006D0075002603C4
:1003800042006900740020005400720061006400A3
:10039000650020004F006E00650020004C005400F6
:1003A00044002E001201000202000008EA221E0092
:0B03B000000101020001040309040029
:1003BC0002013205D8A4E5EF01F0E7EF01F001EFFF
:1003CC0002F030511F0B0009D8A4EFEF01F0F1EF50
:1003DC0001F001EF02F00C8E030E3119D8A4F9EFE5
:1003EC0001F0FBEF01F0FFEF01F0010E366E01EFB3
:1003FC0002F0000E366E3251D8A407EF02F009EF6E
:10040C0002F087EF03F030511F0B020AD8A411EF52
:10041C0002F013EF02F087EF03F034510F0B0009D9
:10042C00D8B41BEF02F01DEF02F087EF03F034514C
:10043C000F0B506E030E506026EF02F028EF02F007
:10044C0087EF03F0200E3918D8A42FEF02F031EF0C
:10045C0002F087EF03F00C8E34BF37EF02F039EF68
:10046C0002F056EF02F034510F0B506E5050020D4B
:10047C006A0EF324D96E000EF420DA6EDECF55F03E
:10048C00DDCF56F034510F0B506E516A7E0E502456
:10049C00D96E000E5120DA6EDF50546E71EF02F0FF
:1004AC0034510F0B506E5050020D0F0EF324D96EB9
:1004BC00000EF420DA6EDECF55F0DDCF56F034515D
:1004CC000F0B506E516A810E5024D96E000E5120C4
:1004DC00DA6EDF50546E54B076EF02F078EF02F023
:1004EC0080EF02F0FB0E5514556EFF0E5614566E2F
:1004FC0085EF02F0040E5510556E5650566E34BFF3
:10050C008AEF02F08CEF02F09DEF02F034510F0BEA
:10051C00506E5050020D6A0EF324D96E000EF4206A
:10052C00DA6E55C0DEFF56C0DDFFACEF02F0345181
:10053C000F0B506E5050020D0F0EF324D96E000E9F
:10054C00F420DA6E55C0DEFF56C0DDFF030E311904
:10055C00D8A4B3EF02F0B5EF02F0EFEF02F055C004
:10056C00D9FF56C0DAFFDFAEBEEF02F0C0EF02F0EB
:10057C00E1EF02F034BFC5EF02F0C7EF02F0D5EFA8
:10058C0002F034510F0B506E516A7E0E5024D96E0E
:10059C00000E5120DA6E0001DF82E1EF02F03451DF
:1005AC000F0B506E516A810E5024D96E000E5120E3
:1005BC00DA6E0001DF8255C0D9FF56C0DAFF000E9B
:1005CC00DB8455C0D9FF56C0DAFF000EDB8E87EFF7
:1005DC0003F0040E5518556E5650566E55C0D9FF83
:1005EC0056C0DAFFDFAEFDEF02F0FFEF02F01BEFBB
:1005FC0003F055C0D9FF56C0DAFF7F0EDF1655C089
:10060C00D9FF56C0DAFF000EDB8C000E496E050ECA
:10061C00486E55C04AF056C04BF0000E4D6E020E9F
:10062C004C6EA6EC0FF021EF03F055C0D9FF56C06D
:10063C00DAFF000EDB8C040E5518556E5650566EB4
:10064C0054B22BEF03F02DEF03F038EF03F055C04D
:10065C00D9FF56C0DAFFDFAE36EF03F038EF03F008
:10066C0070EF03F0020134BF3EEF03F040EF03F0F4
:10067C004EEF03F034510F0B506E516A7E0E502426
:10068C00D96E000E5120DA6E0001DF925AEF03F0A2
:10069C0034510F0B506E516A810E5024D96E000EDE
:1006AC005120DA6E0001DF9255C0D9FF56C0DAFF37
:1006BC003B0EDF16000E496E050E486E55C04AF013
:1006CC0056C04BF0000E4D6E020E4C6EA6EC0FF0A9
:1006DC0076EF03F055C0D9FF56C0DAFF3B0EDF169C
:1006EC00020134510F0B506E516A530E5024526E4E
:1006FC000F0E5120536E52C0D9FF53C0DAFFFE0EBD
:10070C00DF1612003950D8A48EEF03F090EF03F0EF
:10071C00A7EF03F0000E646E000E606E160E616E95
:10072C009F0E0F015B6F7B0E606E9EEF03F0648675
:10073C0064A6A3EF03F0A5EF03F09DEF03F0010E09
:10074C00396E3904D8A4ADEF03F0AFEF03F0BEEF70
:10075C0003F064BAB4EF03F0B6EF03F0BEEF03F0AE
:10076C00000E626E000E606E60806088020E396E44
:10077C0062A4C3EF03F0C5EF03F0CFEF03F060A466
:10078C00CAEF03F0CCEF03F0CFEF03F0629449EC27
:10079C0011F064A2D4EF03F0D6EF03F0D9EF03F01D
:1007AC00A194BCEF04F062A0DEEF03F0E0EF03F0E5
:1007BC00ECEF03F060A0E5EF03F0E7EF03F0ECEFF4
:1007CC0003F040EC06F0040E396E629062A8F1EF73
:1007DC0003F0F3EF03F0FCEF03F060A8F8EF03F085
:1007EC00FAEF03F0FCEF03F0D0EC11F062AC01EF88
:1007FC0004F003EF04F02EEF04F060AC08EF04F00B
:10080C000AEF04F018EF04F0000E496E730E486EF8
:10081C00000E4A6E000E4B6E000E4D6E010E4C6EAD
:10082C00A6EC0FF0629C83EC11F03250D8B421EF9F
:10083C0004F023EF04F024EF04F032063250D8A475
:10084C002AEF04F02CEF04F02EEF04F09FEC0CF0E8
:10085C0062AA33EF04F035EF04F03EEF04F060AA27
:10086C003AEF04F03CEF04F03EEF04F077EC10F0BC
:10087C0062A243EF04F045EF04F05CEF04F060A2D9
:10088C004AEF04F04CEF04F05CEF04F07F0E496E7D
:10089C004868000E4A6E000E4B6E000E4D6E010E37
:1008AC004C6EA6EC0FF0000E0F015F6F040E39605A
:1008BC0062EF04F064EF04F067EF04F0A194BCEF76
:1008CC0004F060A66CEF04F06EEF04F0BBEF04F0E4
:1008DC00000E5A6E62A675EF04F077EF04F0BBEFD2
:1008EC0004F063CF3AF03A30E832E8320F0B346E52
:1008FC0062963AB484EF04F086EF04F090EF04F0C3
:10090C007E0E3424D96EDA6A000EDA220001DF7012
:10091C0098EF04F0810E3424D96EDA6A000EDA22D4
:10092C000001DF703450D8A49EEF04F0A0EF04F067
:10093C00A4EF04F0E9EC0DF0B2EF04F0000E496EF8
:10094C00720E486E3A0E4A6E000E4B6E000E4D6ED5
:10095C00000E4C6EA6EC0FF05A2A030E5A64B9EF37
:10096C0004F0BBEF04F070EF04F0A19412001B50E4
:10097C001C10D8B4C4EF04F0C6EF04F0D3EF04F0AD
:10098C001BC0D9FF1CC0DAFFDFAECFEF04F0D1EFF4
:10099C0004F0D3EF04F084EF05F0030E2A18D8A46A
:1009AC00DAEF04F0DCEF04F0DEEF04F0000E2A6E58
:1009BC002A50D8A4E4EF04F0E6EF04F0E8EF04F0DA
:1009CC0084EF05F0020E2A18D8A4EFEF04F0F1EF33
:1009DC0004F004EF05F0010E3C6E000E3D6E000EAF
:1009EC003E6E000E3F6E020ED1EC08F03CC01BF0C8
:1009FC003DC01CF0030E2A6E84EF05F02A04D8A427
:100A0C000AEF05F00CEF05F084EF05F0400E2964B9
:100A1C0012EF05F014EF05F018EF05F0400E486EDC
:100A2C001AEF05F029C048F04850295C296E400E99
:100A3C000001786F020E796F48C047F02850D8A497
:100A4C002AEF05F02CEF05F056EF05F03DEF05F021
:100A5C007BC0D9FF7CC0DAFF78C0E1FF79C0E2FF30
:100A6C00DFCFE7FF784B792B7B4B7C2B470647502E
:100A7C00D8A443EF05F045EF05F02EEF05F05EEF3F
:100A8C0005F07BC0D9FF7CC0DAFF78C0E1FF79C0EC
:100A9C00E2FFDFCFE7FF784B792B7B4B7C2B4706B4
:100AAC004750D8A45CEF05F05EEF05F047EF05F07A
:100ABC002950D8A464EF05F066EF05F075EF05F04A
:100ACC00400E4818D8A46DEF05F06FEF05F073EFEA
:100ADC0005F0020E2A6E75EF05F0030E2A6E010E5C
:100AEC003C6E400E3D6E020E3E6E48C03FF0020E54
:100AFC00D1EC08F03CC01BF03DC01CF012003CC017
:100B0C0046F03DC047F040504110D8A490EF05F09E
:100B1C0092EF05F094EF05F03FEF06F046C0D9FFD9
:100B2C0047C0DAFF3EC0DFFF40504624426E4150C2
:100B3C004720436EFF0E4224D96EFF0E4320DA6E1F
:100B4C003EC0DFFF415007E1030E405CD8B0B1EF6F
:100B5C0005F0B3EF05F0B5EF05F03FEF06F020EE32
:100B6C0001F04650D9264750DA223EC0DFFF20EE76
:100B7C0002F04650D9264750DA223EC0DFFF4050E3
:100B8C004624426E41504720436EFE0E4224D96EDD
:100B9C00FF0E4320DA6E3EC0DFFF40504624426E0B
:100BAC0041504720436EFD0E4224D96EFF0E432068
:100BBC00DA6E3EC0DFFF415007E1070E405CD8B053
:100BCC00EAEF05F0ECEF05F0EEEF05F03FEF06F085
:100BDC0020EE03F04650D9264750DA223EC0DFFF04
:100BEC0040504624426E41504720436EFC0E422436
:100BFC00D96EFF0E4320DA6E3EC0DFFF415007E195
:100C0C00090E405CD8B00DEF06F00FEF06F011EFB7
:100C1C0006F03FEF06F046C042F047C043F0421EDC
:100C2C00431E424A432A030E4214446E456A445002
:100C3C004626455047224450405E4550415AFC0ED2
:100C4C004016FF0E411636EF06F046C0D9FF47C0DE
:100C5C00DAFF3EC0DFFF4006D8A04106464A472ACD
:100C6C0040504110D8A43DEF06F03FEF06F02BEFBB
:100C7C0006F01200A094000E0F015F6F000E626E62
:100C8C00000E536F540E3C6E0F0E3D6E000E3F6EF9
:100C9C00000E3E6E000E416E020E406E85EC05F0AD
:100CAC00160E616E9F0E0F015B6F7B0E606E000E59
:100CBC00486E4850040D000EF324D96E020EF42039
:100CCC00DA6EDE6ADE6ADE6ADD6A482A0B0E48647A
:100CDC0072EF06F074EF06F05FEF06F0648C000E16
:100CEC000F015C6F6498649C6296000E0C6E000E93
:100CFC00046E000E066E000E056E62B688EF06F0EE
:100D0C008AEF06F07AEF06F0010E306E010E2F6EB0
:100D1C00000E2E6E000E2D6E000E356E000E486EFF
:100D2C004850020D0F0EF324D96E000EF420DA6E2B
:100D3C00000EDE6E000EDD6E4850020D6A0EF324BE
:100D4C00D96E000EF420DA6E000EDE6E000EDD6E33
:100D5C00810E4824D96EDA6A000EDA22000EDF6E9C
:100D6C007E0E4824D96EDA6A000EDA22000EDF6E8F
:100D7C00482A020E4864C5EF06F0C7EF06F096EF5E
:100D8C0006F0080E0F6E020E106E160E0F01536F4A
:100D9C00020E0201036F300E026F080E016F040E7B
:100DAC00006F008F000E3B6E000E0001746F000E82
:100DBC00756F000E766F000E776F000E2C6E000EA6
:100DCC00396E1200800E02013019D8A4F0EF06F033
:100DDC00F2EF06F08FEF07F0C00E0C6E76EF07F017
:100DEC00A40E096E030E0A6E000E0E6E120E0D6E20
:100DFC008FEF07F03251D8A406EF07F008EF07F099
:100E0C0046EF07F03251020D070EF324F66E030E77
:100E1C00F420F76E0900F5CF09F00A00F5CF0AF0BF
:100E2C00020E09243C6E000E0A203D6E3CC0F6FFFB
:100E3C003DC0F7FFF86A020EF76403D00800F550C6
:100E4C0005D0F6CFE1FFF7CFE2FFE7500D6E030EB2
:100E5C0009243C6E000E0A203D6E3CC0F6FF3DC0DE
:100E6C00F7FFF86A020EF76403D00800F55005D0BE
:100E7C00F6CFE1FFF7CFE2FFE7500E6E8FEF07F0F2
:100E8C00000E0C6E8FEF07F0030E326150EF07F07F
:100E9C0052EF07F046EF07F03251020D010EF3242A
:100EAC00F66E030EF420F76E0900F5CF09F00A0078
:100EBC00F5CF0AF009C0F6FF0AC0F7FFF86A020E78
:100ECC00F76403D00800F55005D0F6CFE1FFF7CF5B
:100EDC00E2FFE7503C6E3C500D6E0E6A8FEF07F050
:100EEC0033513C6E3D6A3D50000AD8B480EF07F098
:100EFC0046EF07F03C50010AD8B4F6EF06F0030AAF
:100F0C00D8B400EF07F0010AD8B44AEF07F046EF67
:100F1C0007F0120020EE01F02350D9262450DA22DB
:100F2C00DF503D6E3D50055C000E0658D8B0A1EF69
:100F3C0007F0A3EF07F0A5EF07F005C03DF03D501B
:100F4C00055E000E065A000E3C6EBCEF07F0380E24
:100F5C003C24D96EDA6A020EDA2201C0E1FF02C02B
:100F6C00E2FFDFCFE7FF014A022A3C2A3D503C5CFE
:100F7C00D8A0C3EF07F0C5EF07F0ADEF07F00550B1
:100F8C000610D8B4CCEF07F0CEEF07F007EF08F05F
:100F9C0020EE01F02150D9262250DA22080EDF6E05
:100FAC0020EE02F02150D9262250DA22380EDE6EC5
:100FBC00020EDD6E23C0D9FF24C0DAFFDFBCE9EFDF
:100FCC0007F0EBEF07F0F9EF07F021C0D9FF22C0D3
:100FDC00DAFF480EDF6E21C0D9FF22C0DAFF000E07
:100FEC00DB8E30EF08F021C0D9FF22C0DAFF080EEB
:100FFC00DF6E21C0D9FF22C0DAFF000EDB8E30EF8E
:10100C0008F020EE01F02150D9262250DA22080EE9
:10101C00DF6E20EE02F02150D9262250DA22300E5B
:10102C00DE6E020EDD6E21C0D9FF22C0DAFF040E87
:10103C00DF6E21C0D9FF22C0DAFF000EDB8E049ECA
:10104C003150D8A42CEF08F02EEF08F030EF08F058
:10105C009FEC0CF0120064980CBE37EF08F039EFDF
:10106C0008F07EEF08F004AE3EEF08F040EF08F019
:10107C0052EF08F0020E376E2D50D8A448EF08F04E
:10108C004AEF08F04CEF08F0FAEC0EF0000E2F6E61
:10109C00000E306ED0EF08F020EE01F02150D92672
:1010AC002250DA22080EDF6E20EE02F02150D926F3
:1010BC002250DA22300EDE6E020EDD6E21C0D9FF18
:1010CC0022C0DAFF0C0EDF6E21C0D9FF22C0DAFF7E
:1010DC00000EDB8E0FC0D9FF10C0DAFF040EDF6EDE
:1010EC000FC0D9FF10C0DAFF000EDB8ED0EF08F076
:1010FC00020130AF84EF08F086EF08F0A2EF08F0A1
:10110C00010E376E2E50D8A48EEF08F090EF08F039
:10111C0092EF08F0FAEC0EF0000E2F6E000E306E0F
:10112C003150D8A49CEF08F09EEF08F0D0EF08F0F7
:10113C009FEC0CF0D0EF08F0020E376E20EE01F0B1
:10114C002150D9262250DA22080EDF6E20EE02F052
:10115C002150D9262250DA22300EDE6E020EDD6EC0
:10116C0021C0D9FF22C0DAFF040EDF6E21C0D9FFE7
:10117C0022C0DAFF000EDB8E000E2F6E000E306EDA
:10118C003150D8A4CCEF08F0CEEF08F0D0EF08F037
:10119C009EEF08F01200446E3C50D8B4D8EF08F023
:1011AC00DAEF08F0E8EF08F04450020D0F0EF324CC
:1011BC00D96E000EF420DA6EDECF45F0DDCF46F0AE
:1011CC00F4EF08F04450020D6A0EF324D96E000EB1
:1011DC00F420DA6EDECF45F0DDCF46F045504610F8
:1011EC00D8A4FBEF08F0FDEF08F003EF09F0000EB8
:1011FC003C6E000E3D6E6FEF09F020EE02F0455094
:10120C00D9264650DA223DC0DEFF3EC0DDFF20EE7F
:10121C0001F04550D9264650DA223FC0DFFF45C0C9
:10122C00D9FF46C0DAFF400EDF1645C0D9FF46C0D5
:10123C00DAFF000EDB8645C0D9FF46C0DAFF000E90
:10124C00DB8E3C50D8B42DEF09F02FEF09F04EEFA8
:10125C0009F04450020D0F0EF324D96E000EF42049
:10126C00DA6EDECF40F0DDCF41F0040E4018426E56
:10127C004150436E4450020D0F0EF324D96E000EF4
:10128C00F420DA6E42C0DEFF43C0DDFF6BEF09F0E5
:10129C004450020D6A0EF324D96E000EF420DA6E5F
:1012AC00DECF40F0DDCF41F0040E4018426E4150CD
:1012BC00436E4450020D6A0EF324D96E000EF420D6
:1012CC00DA6E42C0DEFF43C0DDFF45C03CF046C0D5
:1012DC003DF01200200E396076EF09F078EF09F03E
:1012EC007AEF09F001EF0AF064A27FEF09F081EFC9
:1012FC0009F083EF09F001EF0AF02604D8A489EF76
:10130C0009F08BEF09F08FEF09F08AEC0DF0FDEF8F
:10131C0009F02A50D8A495EF09F097EF09F0FDEFEA
:10132C0009F0000E476E010E486E010E496EA0ECDE
:10133C000EF05D6E5D04D8A4A6EF09F0A8EF09F0DD
:10134C00FDEF09F0DFEF09F0530E0001846F300E52
:10135C00856F310E866F840E3C6E000E3D6E030E53
:10136C003E6EE6EC11F0B7EC11F0010E266EFDEFBF
:10137C0009F0560E0001846F390E856F390E866F99
:10138C00390E876F840E3C6E000E3D6E040E3E6E61
:10139C00E6EC11F0FDEF09F03F0E0001846F840EB6
:1013AC003C6E000E3D6E010E3E6EE6EC11F0FDEF54
:1013BC0009F0010100515B6E5C6A5C50000AD8B404
:1013CC00EAEF09F0D2EF09F05B50530AD8B4AAEF58
:1013DC0009F0050AD8B4BFEF09F0250AD8B4AAEF72
:1013EC0009F0050AD8B4BFEF09F0D2EF09F088EC88
:1013FC0003F0BDEC04F01200000E0201386F000E79
:10140C00396F64EF0AF00C8E3604D8A410EF0AF092
:10141C0012EF0AF07EEF0AF038837EEF0AF00C8EA2
:10142C007EEF0AF00C8E34510F0B0009D8B421EF6B
:10143C000AF023EF0AF07EEF0AF034BF28EF0AF02F
:10144C002AEF0AF03BEF0AF034510F0B3C6E3C5084
:10145C00020D6A0EF324D96E000EF420DA6EDECF84
:10146C003EF0DDCF3FF04AEF0AF034510F0B3C6EEB
:10147C003C50020D0F0EF324D96E000EF420DA6EE0
:10148C00DECF3EF0DDCF3FF03EC0D9FF3FC0DAFFEC
:10149C00DFAE53EF0AF055EF0AF07EEF0AF03EC0D4
:1014AC00D9FF3FC0DAFFDFA45EEF0AF060EF0AF06D
:1014BC007EEF0AF0010E386F7EEF0AF030511F0BF1
:1014CC003C6E3D6A3D50000AD8B46FEF0AF07EEFD7
:1014DC000AF03C50000AD8B409EF0AF0010AD8B45B
:1014EC0015EF0AF0030AD8B418EF0AF07EEF0AF0F1
:1014FC000CAE83EF0AF085EF0AF08CEF0AF0380E91
:10150C00096E020E0A6E0C80020E0D6E12000201A4
:10151C003039E832030B0009D8B497EF0AF099EF91
:10152C000AF0DDEF0AF016EF0BF00C8E080E396E98
:10153C0016EF0BF0E8EC06F016EF0BF017EC0DF0D5
:10154C0016EF0BF03B0E096E000E0A6E0C80010EAE
:10155C000D6E0C8E16EF0BF002EC0AF016EF0BF082
:10156C00DEEC01F016EF0BF0D30E3425096E0A6A8F
:10157C00000E0A22ACEF0AF00C8ED30E3425D96E75
:10158C00DA6A000EDA2232C2DFFF16EF0BF0000E21
:10159C00496E020E486E000E4A6E000E4B6E000E27
:1015AC004D6E000E4C6EA6EC0FF016EF0BF0315199
:1015BC00576E586A5850000AD8B4E7EF0AF016EF85
:1015CC000BF05750000AD8B4B2EF0AF0010AD8B4A5
:1015DC00B6EF0AF0020AD8B4B6EF0AF0060AD8B48D
:1015EC009BEF0AF0030AD8B4A0EF0AF0010AD8B4B2
:1015FC00CDEF0AF00F0AD8B4A8EF0AF0010AD8B45C
:10160C00A4EF0AF0030AD8B4BAEF0AF0010AD8B46E
:10161C00C2EF0AF0070AD8B416EF0BF016EF0BF076
:10162C001200080E3C6E0E5007E1080E0D5CD8B08F
:10163C0022EF0BF024EF0BF03CEF0BF00DC03CF065
:10164C003850D8A42CEF0BF02EEF0BF032EF0BF040
:10165C00010E386E3CEF0BF03804D8A438EF0BF0C9
:10166C003AEF0BF03CEF0BF0020E386E3C500D5E77
:10167C00000E0E5A20EE01F00F50D9261050DA222F
:10168C003CC0DFFF380E1F6E020E206E0CB051EF07
:10169C000BF053EF0BF093EF0BF06FEF0BF009C067
:1016AC00F6FF0AC0F7FFF86A1FC0D9FF20C0DAFFA7
:1016BC00020EF76403D00800F55005D0F6CFE1FF19
:1016CC00F7CFE2FFE750DF6E094A0A2A1F4A202AA9
:1016DC003C063C50D8A475EF0BF077EF0BF055EFB0
:1016EC000BF09BEF0BF009C0F6FF0AC0F7FFF86A8E
:1016FC001FC0D9FF20C0DAFF020EF76403D0080028
:10170C00F55005D0F6CFE1FFF7CFE2FFE750DF6EE3
:10171C00094A0A2A1F4A202A3C063C50D8A499EFB1
:10172C000BF09BEF0BF079EF0BF012000FC0D9FF11
:10173C0010C0DAFF000EDFBC010E3D6E040E0F1858
:10174C000F6E1050106E080E3918D8A4B0EF0BF0B5
:10175C00B2EF0BF0C5EF0BF0020132517F0B0F0112
:10176C005C6F5C51D8B4BDEF0BF0BFEF0BF0C3EF67
:10177C000BF0100E396EC5EF0BF0040E396E3704FA
:10178C00D8A4CBEF0BF0CDEF0BF014EF0CF020EE58
:10179C0002F00F50D9261050DA22380EDE6E020EEF
:1017AC00DD6E17EC0BF0020E3818D8A4E0EF0BF03E
:1017BC00E2EF0BF0F0EF0BF00FC0D9FF10C0DAFF27
:1017CC00040EDF6E0FC0D9FF10C0DAFF000EDB8EE7
:1017DC001EEF0CF03D50D8A4F6EF0BF0F8EF0BF029
:1017EC0006EF0CF00FC0D9FF10C0DAFF480EDF6E09
:1017FC000FC0D9FF10C0DAFF000EDB8E1EEF0CF00D
:10180C000FC0D9FF10C0DAFF080EDF6E0FC0D9FF72
:10181C0010C0DAFF000EDB8E1EEF0CF004AE19EFD9
:10182C000CF01BEF0CF01CEF0CF0049E000E376E4E
:10183C001200020130511F0BE806D8B428EF0CF04F
:10184C002AEF0CF02CEF0CF09EEF0CF03039E83254
:10185C00030BE806D8B435EF0CF037EF0CF039EF8A
:10186C000CF09EEF0CF03451D8B43FEF0CF041EF7C
:10187C000CF07DEF0CF03405D8B447EF0CF049EFC9
:10188C000CF07DEF0CF09EEF0CF0C40E096E000E08
:10189C000A6E000E0E6E080E0D6E0C800C8E9EEFF6
:1018AC000CF0C40E096E000E0A6E54EF0CF036C22A
:1018BC0005F037C206F0CC0E016E000E026E000E63
:1018CC00076E000E086E048E9EEF0CF0CC0E096EA7
:1018DC00000E0A6E000E0E6E070E0D6EC10E0C6E13
:1018EC009EEF0CF032C227F00C8E9EEF0CF03151B3
:1018FC003C6E3D6A3D50000AD8B487EF0CF09EEF69
:10190C000CF03C50000AD8B44BEF0CF0010AD8B4E0
:10191C0057EF0CF0210AD8B45DEF0CF0010AD8B4E3
:10192C006CEF0CF0030AD8B478EF0CF09EEF0CF0CF
:10193C0012003050D8A4A5EF0CF0A7EF0CF016EF66
:10194C000DF0010E306E2F50D8A4AFEF0CF0B1EFAC
:10195C000CF016EF0DF0010E2F6E020E3718D8A4F6
:10196C00BAEF0CF0BCEF0CF0D2EF0CF020EE01F063
:10197C000F50D9261050DA22000EDF6E0FC0D9FF9F
:10198C0010C0DAFF480EDF6E0FC0D9FF10C0DAFFAF
:10199C00000EDB8E16EF0DF03704D8A4D8EF0CF048
:1019AC00DAEF0CF016EF0DF0000E336E20EE01F0B6
:1019BC002350D9262450DA22080EDF6E20EE02F0D6
:1019CC002350D9262450DA22300EDE6E020EDD6E44
:1019DC0023C0D9FF24C0DAFF040EDF6E23C0D9FF69
:1019EC0024C0DAFF000EDB8E010E336E20EE01F008
:1019FC002150D9262250DA22080EDF6E20EE02F09A
:101A0C002150D9262250DA22300EDE6E020EDD6E07
:101A1C0021C0D9FF22C0DAFF800EDF6E16EF0DF069
:101A2C0012000C8E540E3C6E0F0E3D6E000E3F6E6F
:101A3C00000E3E6E000E416E020E406E85EC05F0FF
:101A4C00000E3C6E020E3D6E000E3F6E000E3E6EA2
:101A5C00000E416E300E406E85EC05F0648C000E6D
:101A6C00506E810E5024D96EDA6A000EDA22000E06
:101A7C00DF6E7E0E5024D96EDA6A000EDA22000E6A
:101A8C00DF6E502A020E50644EEF0DF050EF0DF049
:101A9C0037EF0DF0D30E3C6E000E3D6E000E3F6E18
:101AAC00000E3E6E000E416E020E406E85EC05F08F
:101ABC00649C080E0F6E020E106E000E236E020E4A
:101ACC00246E23C021F024C022F032C23BF03B50E4
:101ADC00D8A473EF0DF075EF0DF079EF0DF0100E3B
:101AEC00396E89EF0DF0000E496E010E486E3B0EFB
:101AFC004A6E000E4B6E000E4D6E010E4C6EA6EC37
:101B0C000FF0200E396E1200000E476E010E486E5B
:101B1C00010E496EA0EC0EF04B6E4B04D8A499EF5D
:101B2C000DF09BEF0DF0A9EF0DF001010051D8A4C1
:101B3C00A2EF0DF0A4EF0DF0A9EF0DF0F29A000E4C
:101B4C00266EE8EF0DF0F29A165009E1060E155CC0
:101B5C00D8A0B3EF0DF0B5EF0DF0CAEF0DF01650A5
:101B6C000001846F15C085F0840E3C6E000E3D6E36
:101B7C00020E3E6EE6EC11F0000E166E000E156EA7
:101B8C00000E5E6E010E256E2504D8A4D0EF0DF06C
:101B9C00D2EF0DF0E7EF0DF05E04D8A4D8EF0DF006
:101BAC00DAEF0DF0E7EF0DF0000184698569840E22
:101BBC003C6E000E3D6E020E3E6EE6EC11F0000E19
:101BCC00256EF28A12002D0E326E3AC059F0FD0EBF
:101BDC005916D8A4F4EF0DF0F6EF0DF038EF0EF027
:101BEC003AC059F0D89059323F0E59165950040D3D
:101BFC00000EF324236E020EF420246E23C021F079
:101C0C0024C022F0040E2118216E2250226E23C013
:101C1C00D9FF24C0DAFFDF30E8320F0B0D0AD8A44D
:101C2C001AEF0EF01CEF0EF034EF0EF0300E3C6E8F
:101C3C00020E3D6E20EE02F02350D9262450DA22FB
:101C4C00DECF3EF0DDCF3FF0000E416E080E406E51
:101C5C00D9EC10F0F6EC0FF044EF0EF03DEC10F078
:101C6C0044EF0EF03A50FD0B040AD8A440EF0EF0EE
:101C7C0042EF0EF044EF0EF09CEC0BF01200F2A4CD
:101C8C004AEF0EF04CEF0EF09FEF0EF082BE51EFCC
:101C9C000EF053EF0EF06CEF0EF0185009E1060E3B
:101CAC00175CD8A05CEF0EF05EEF0EF062EF0EF05A
:101CBC0017C015F018C016F0000E186E000E176E37
:101CCC00020E1926000E1A229EEF0EF01A5009E190
:101CDC00060E195CD8A075EF0EF077EF0EF07DEFC5
:101CEC000EF019C015F01AC016F0000E5E6E000E44
:101CFC001A6E000E196E5E50D8A487EF0EF089EFA5
:101D0C000EF09EEF0EF0020E1726000E1822FE0E9D
:101D1C00175CFF0E1858D8A096EF0EF098EF0EF047
:101D2C009EEF0EF0000E186E000E176E010E5E6E1A
:101D3C00F2941200000E2B6E1D501E10D8B4A9EF99
:101D4C000EF0ABEF0EF0B6EF0EF01DC0D9FF1EC0BB
:101D5C00DAFFDFBEB4EF0EF0B6EF0EF0F8EF0EF0D8
:101D6C0020EE01F01D50D9261E50DA224950DE5CBF
:101D7C00D8B0C3EF0EF0C5EF0EF0CDEF0EF020EEA5
:101D8C0001F01D50D9261E50DA22DF50496E000E8C
:101D9C002B6EE0EF0EF0800E2B24D96EDA6A020E59
:101DAC00DA222B504724E16E000E4820E26EDFCF82
:101DBC00E7FF2B2A49502B5CD8A0E7EF0EF0E9EF98
:101DCC000EF0D1EF0EF0000E3C6E800E3D6E020E4A
:101DDC003E6E400E3F6E020ED1EC08F03CC01DF082
:101DEC003DC01EF02B501200000E2E6E000E2D6EFC
:101DFC00020E3718D8A405EF0FF007EF0FF027EFFE
:101E0C000FF020EE01F02150D9262250DA22080ED4
:101E1C00DF6E20EE02F02150D9262250DA22380E45
:101E2C00DE6E020EDD6E21C0D9FF22C0DAFF480E35
:101E3C00DF6E21C0D9FF22C0DAFF000EDB8E4FEF20
:101E4C000FF00D500201365D0E503759D8B031EFFE
:101E5C000FF033EF0FF037EF0FF036C20DF037C243
:101E6C000EF017EC0BF020EE02F00F50D9261050AC
:101E7C00DA22380EDE6E020EDD6E0FC0D9FF10C0F6
:101E8C00DAFF480EDF6E0FC0D9FF10C0DAFF000E6C
:101E9C00DB8E1200416E000E426E020E436E3C5001
:101EAC003D6E3E6AD8903D363E3641503F6E406A9C
:101EBC00D8903F364036D8903F3640363D503F267E
:101ECC003E504022D8903F364036D8903F36403670
:101EDC003F5042264050432242C0D9FF43C0DAFF54
:101EEC00DF9E3C50D8A47DEF0FF07FEF0FF08DEF0D
:101EFC000FF04150020D6A0EF324D96E000EF4203F
:101F0C00DA6E42C0DEFF43C0DDFF99EF0FF04150A7
:101F1C00020D0F0EF324D96E000EF420DA6E42C0BF
:101F2C00DEFF43C0DDFF42C0D9FF43C0DAFFDF9CB8
:101F3C0020EE04F04250D9264350DA22DF8C1200F6
:101F4C00BCEF0FF0010E68EC11F0F5EF0FF0020E84
:101F5C0068EC11F0F5EF0FF0A8EC10F09DEC11F01F
:101F6C00F5EF0FF01FEC0CF0F5EF0FF048C04EF052
:101F7C0049C04FF04F50000AD8B4CBEF0FF07F0A96
:101F8C00D8B4EEEF0FF0F5EF0FF04E50010AD8B4C5
:101F9C00B2EF0FF0030AD8B4F5EF0FF0010AD8B482
:101FAC00B8EF0FF0060AD8B4F5EF0FF0770AD8B4F3
:101FBC00F5EF0FF0010AD8B4F5EF0FF0070AD8B41B
:101FCC00ADEF0FF0010AD8B4A8EF0FF0F5EF0FF05A
:101FDC004E50FF0AD8B4F5EF0FF0F5EF0FF01200EA
:101FEC00000E386E000E316E000E2E6E000E2D6E31
:101FFC00000E336E000E376E0FC0D9FF10C0DAFF23
:10200C007F0EDF16040E0F180F6E1050106E0FC0DF
:10201C00D9FF10C0DAFF7F0EDF16040E0F180F6EFB
:10202C001050106E21C0D9FF22C0DAFF7F0EDF16D0
:10203C00000E0C6E000E0E6E000E0D6E000E046E79
:10204C00000E066E000E056E8DEC0AF0000E496E49
:10205C00030E486E000E4A6E000E4B6E000E4D6E57
:10206C00000E4C6EA6EC0FF031EC08F01200020ED4
:10207C003718D8A444EF10F046EF10F04AEF10F0E8
:10208C0090EC07F076EF10F0000E376E3350D8A4BA
:10209C0052EF10F054EF10F074EF10F020EE01F04E
:1020AC002150D9262250DA22080EDF6E20EE02F0E3
:1020BC002150D9262250DA22300EDE6E020EDD6E51
:1020CC0021C0D9FF22C0DAFF0C0EDF6E21C0D9FF70
:1020DC0022C0DAFF000EDB8E76EF10F0000E336EAE
:1020EC0012000F0153A17DEF10F07FEF10F0A6EF5F
:1020FC0010F023C0D9FF24C0DAFF800EDE18D8A45C
:10210C008AEF10F08CEF10F0A5EF10F00FC0D9FF94
:10211C0010C0DAFF840EDE18D8A497EF10F099EFF8
:10212C0010F0A5EF10F023C0D9FF24C0DAFF0C0E7D
:10213C00DF6E23C0D9FF24C0DAFF000EDB8E539173
:10214C00629A1200000E0001CC6F4B0ECD6F000E88
:10215C00CE6F000ECF6F000ED06F000ED16F080E39
:10216C00D26F000E2B6E1A0E446E010E01EC11F0A4
:10217C001E0E446E020E01EC11F0000E3C6E800E31
:10218C003D6E020E3E6E400E3F6E020ED1EC08F01C
:10219C003CC01DF03DC01EF0000E1B6E000E1C6EF0
:1021AC00000E2A6E12003EC044F03FC045F03CC009
:1021BC0042F03DC043F0F3EF10F044C0D9FF45C0EE
:1021CC00DAFFDF50466E444A452A42C0D9FF43C06D
:1021DC00DAFF46C0DFFF424A432A4006D8A0410638
:1021EC00402806E14128D8A4FEEF10F000EF11F0D2
:1021FC00E3EF10F01200476E44A407EF11F009EF63
:10220C0011F00EEF11F0000E3C6E475050EC0FF039
:10221C0044A213EF11F015EF11F01AEF11F0010EAB
:10222C003C6E475050EC0FF0530E4724456E466AF7
:10223C000F0E462245C0D9FF46C0DAFF44C0DFFF6F
:10224C0012000C0EF66E240EF76E000EF86E0900DE
:10225C00F5CF5EF001EE00F0400EEE6AE806FDE10F
:10226C0000EE60F0750EEE6AE806FDE100EE01F09E
:10227C003B0EEE6AE806FDE15F905F92000EF86E91
:10228C000001F9EF11F0000E356E000E496E740E60
:10229C00486E000E4A6E000E4B6E000E4D6E000E18
:1022AC004C6EA6EC0FF0649260945EEF11F06294A9
:1022BC0062B463EF11F065EF11F05DEF11F0000EF9
:1022CC002C6E12003E6E3E503C6E3D6A3D50000A34
:1022DC00D8B473EF11F082EF11F03C50000AD8B46F
:1022EC0082EF11F0010AD8B482EF11F0030AD8B4CE
:1022FC0082EF11F082EF11F01200010E0001742731
:10230C00000E7523762377233550D8A490EF11F067
:10231C0092EF11F09CEF11F02C2A2C50D8A499EFCD
:10232C0011F09BEF11F09CEF11F02C681200000ED5
:10233C000001D06F080ED26F000ED16F000ECC6F63
:10234C00C20ECD6F010ECE6F000ECF6F000E936ECE
:10235C00800E946E8B68000E7E6E000E7F6E829ADD
:10236C001200000E1A6E000E196E000E186E000E82
:10237C00176E000E166E000E156E010E5E6E000EC0
:10238C00256EC00ED56ED08EF184F294F28AF28E48
:10239C00F28C1200608462986482010E356E000E1D
:1023AC002C6E000E496E750E486E000E4A6E000EB5
:1023BC004B6E000E4D6E000E4C6EA6EC0FF0120024
:1023CC002A50D8A4ECEF11F0EEEF11F0F8EF11F069
:1023DC003CC07BF03DC07CF03EC029F0010E286E65
:1023EC00010E2A6E1200000E68EC11F040EC06F0A3
:1023FC0088EC03F070EC09F0FEEF11F009EF00F03F
:01240C0001CE
:020000040020DA
:08000000FFFFFFFFFFFFFFFF00
:020000040030CA
:0E0000000032011EFF0081FF03C003E0034039
:00000001FF
